:4000000000400020110000004D0A00004D0A000080B500AF00F04EFD80B500AF254B12221A6003F0B3F8244B180003F0C1F9012003F0BCF80C2002F07FFF204B204A1A60FB
:40004000204B8022D2051A601F4B1F4A126802210A431A601D4B1E4A1A601E4B00221A601D4B1D4A126808218A431A60FA23DB00180002F0AFFF194B180003F027F8184B42
:40008000CE22D2011A60174B174A1A60174B802212061A60164B00221A60164B40221A60084B8022D2051A60024B00221A60C046BD4680BD30001040001BB70004010B40DF
:4000C000060000800C020B4078002E407C002E406A2D000064F02E406CF02E40DC050000000301400000014040FF008008010B4000010B400401014080B582B000AF72B6E5
:40010000374B00221A60FB1D00221A7022E0FB1D1A7813005B009B185B00324A9B183B603B681A78597809020A43997809040A43DB781B06134318003B681A795B791B0219
:4001400013439BB2190000F05DFCFB1D1A78FB1D01321A70FB1D1B78012BD8D9224B992212041A60214B00221A60214B00221A60204B992212041A601F4B992212041A6040
:400180001E4B992212041A601D4A1D4B1B78DBB206210B43DBB213701A4B20221A601A4BC42292021A60194B20221A60184B80221A60184B8022D2031A60174B8022120292
:4001C0001A60164B80221A60154BC02212041A60FFF722FF00F026FCC046BD4602B080BD6CF02E408866010000010240000002400800044010500F4020500F4030500F404E
:4002000000700F4000010440080104401801044000020440080204400C020440000304400803044010B5064C2378002B07D1054B002B02D0044800E000BF0123237010BD23
:40024000B00F00200000000064660100084B10B5002B03D00749084800E000BF07480368002B00D110BD064B002BFBD09847F9E700000000B40F002064660100A80B002075
:400280000000000080B500AF00F04AF804F01CFC1B4B1B78180000F01BFB1A4B1B78002B0ED0194B180000F0E1FD184A184B1100180003F07FFC04F007FC124B00221A705E
:4002C000144B1B78002B10D000F0ECFA124B1A785B781B021A4300231204120C1B0C1B0413431121180010F0CDF80C4B1B78002BCCD00A4B00221A70002000F053FDC5E72F
:40030000AC0B0020CD0F0020342100208021002068660100CC0F002030210020CF0F002080B500AF62B6084B180000F0AFFC02F077FF02F0ABFF00F09BFA044B180002F097
:4003400093FDC046BD4680BD51030000B909000090B58BB000AF786039602623FB1800221A807B68282B00D16FE00AD8022B35D002D8012B17D003E1202B33D0272B4ED0E0
:40038000FEE0422B00D1F8E004D82B2B0FD0412B3CD0F5E0492B00D1E3E01222FF32934200D1D7E0ECE0784B01221A70E8E0774B1B78052B0ED1764B01221A70754B1B78F8
:4003C000002B00D0DBE0012002F01CFD6E4B01221A70D4E06E4B02221A70D0E06A4B01221A70CDE0694B1B78022B0BD00C23FB183A6813CA13C303CA03C30C23FB18180008
:4004000000F0D8F8624B02221A70B9E0624A3B681000190002231A0003F0BBFBB0E02423FC185D4B1A785B781B021A4300231204120C1B0C1B041343180000F0B1FD03008A
:400440002380534B03221A709AE02623FB1800221A8059E02623FB181A88504913009B009B189B00CB1804331B6800221A702623FB181A88494913009B009B189B00CB1876
:4004800004331B68013300221A702623FB181A88424913009B009B189B00CB1804331B68023300221A702623FB181A883B4913009B009B189B00CB1804331B68033300222C
:4004C0001A702623FB181A88344913009B009B189B00CB1804331B68043300221A702623FB181A882D4913009B009B189B00CB1804331B68053300221A702623FB181A888C
:400500002623FB1801321A80254B1B789BB22622BA1812889A429DD3214B00221A701D4B00221A701F4B00221A701F4B00221A70174B01221A701D4B1E220021180003F007
:4005400031FB114B01221A70114B1B78180000F0BFF915E0134B01221A700D4B04221A700EE03B683B623B6A5B681B781A00104B1100180003F01EFB02E0C04600E0C046EE
:40058000C046BD460BB090BDCF0F002088220020AC0B0020CD0F002030210020A0210020CE0F0020CC0F0020D00F0020802100207066010080B584B000AF78600D23FB187B
:4005C00001221A70A24B1B78092B00D93CE10E23FB1800221A8032E00E23FB181A880E23FB1819880B005B005B185B0099495918994813009B009B189B00C31804331960D8
:400600000E23FB181A88944913009B009B189B00CB18043318687B685B680622190003F0A9FA031E04D10D23FB1800221A700EE00E23FB181A880E23FB1801321A80844B4B
:400640001B789BB20E22BA1812889A42C4D30D23FB181B78002B00D1F2E07D4B1B7818007B4B1B781A0013005B009B185B00794A9A18794903009B001B189B00CB180433C8
:400680001A60734B1B7819007B68187A724A0B009B005B189B00D3180833021C1A706C4B1B7818007B68DA686B4903009B001B189B00CB180C331A60654B1B7819007B6821
:4006C0001878654A0B009B005B189B00011C99545F4B1B7819007B6858785F4A0B009B005B189B00D3180133021C1A700E23FB1800221A801DE0564B1B781900564A0B00DB
:400700009B005B189B00D31804331A680E23FB181B88D2187B6859680E23FB181B88CB181B7813700E23FB181A880E23FB1801321A800E23FB181B88052BDCD9444B1B7832
:4007400019007B6810201856434A0B009B005B189B00D3181033021C1A707B6859683F4B0622180003F006FA031E63D10A23FB1800221A800E23FB1800221A8012E00E23F3
:40078000FB181A887B6859680E23FB181B88CB181978334B99540E23FB181A880E23FB1801321A800E23FB181B88052BE7D9284B1B781900284A0B009B005B189B00D3181C
:4007C00001331A78264B9A717B68DB6803331A780A23FB181A800A23FB181A88214B1100180003F0E7F90E23FB1800221A8013E00E23FB181A887B68DB680E217918098855
:4008000005315B181978184B99540E23FB181A880E23FB1801321A800E23FB181A880A23FB181B88013B9A42E2DB104B01221A7000F00AFB064B1B780133DAB2044B1A701F
:400840000D23FB1801221A70C046BD4604B080BDCE0F00203C210020A021002078210020342100208066010080210020CD0F002080B500AF0A4B00225A71094BA0221A719A
:40088000074B5022DA70064B65229A70044B43225A70034B25221A70C046BD4680BDC0467821002080B500AF02F086FA031E03D1064B01221A7002E0044B00221A70034B32
:4008C000180000F059F8C046BD4680BDD00F002080B582B000AF0200FB1D1A70FB1D1B78022B0CD002DC012B05D03DE0032B1DD0042B32D038E0012002F084FA34E01C4B80
:400900001B88013B9AB21A4B1A80194B1B88002B27D1174B3C221A8002F098FA03005A425341DBB2180002F06DFA1AE0114B1B88013B9AB20F4B1A800E4B1B88002B12D1D5
:400940000B4B05221A8002F081FA03005A425341DBB2180002F056FA05E0002002F052FA02E0C04600E0C046C046BD4602B080BDAE0B0020B00B002090B585B000AF78601B
:400980000E23FC1879680B4B1A785B781B02134300201B041B0C020C1204134318000B000122002100F01AFC03002380C046BD4605B090BD3021002080B500AF02F0B2FAF2
:4009C00002F008FAC046BD4680BDC04680B586B000AFF860B9607A6000237B6109E0BB685A1CBA601B78180002F03AFC7B6901337B617A697B689A42F1DB7B681800BD4684
:400A000006B080BD80B582B000AF786039603A687B680021180003F0C5F8C046BD4602B080BDC04680B500AF054B03221A60054B03221A60044B00221A60C046BD4680BDDD
:400A40003000304030003140000E3F4080B500AF03F064F803001B680C2B00D1FEE7FEE780B584B000AF7860104B1A687B68D3181A000F4BD21A8023DB009A4209DC0B4B8D
:400A80001B68FB60094B1A687B68D218074B1A6007E003F043F803000C221A6001235B42FB60FB681800BD4604B080BDB40B0020C022002080B586B000AF224B7B61224BED
:400AC0003B61204B7B6135E03B691B68FB603B695B68BB603B699B683B6000237B600CE0FB681A68BB681A60BB680433BB60FB680433FB607B6804337B607A683B689A428C
:400B0000EED13B69DB683B6000237B6008E0BB6800221A60BB680433BB607B6804337B607A683B689A42F2D13B6910333B617B69013B7B617B69002BC6D102F0F5FFFFF740
:400B4000A1FBFEE7010000008C69010080B582B000AF154B144A126801218A431A6000237B600FE07B68032B04D8104B7A689200D35800E00E4B0F4A796889008B507B68B8
:400B800001337B607B682F2BECD9FFF7B5FA0A4B00221A60044B044A126801210A431A60C046BD4602B080BD00001040000000004D0A000000000020C000002080B500AF0B
:400BC0001A4B00221A701A4B00221A70194B00221A70194B5A88194B1A80174B9A88174B5A80154B9A79154B1A73134BDA79134B1A71124B4022DA81104B50221A820F4BE8
:400C000000225A820D4BC82252009A820B4B0022DA820A4B012252421A83094B1E221A8000F010F8C046BD4680BDC046B42200209C220020B2220020B80B00206C220020BE
:400C40008622002080B500AF0D4B1B88002B05D10C4B0E220021180002F0A4FF084BDB88002B05D1084B06220021180002F09AFF01F018FD00F076FAC046BD4680BDC046CF
:400C8000D00B0020A422002090220020B0B594B004AF78603E23FB1800221A802823FA18394B1000190014231A0002F072FF374B1B78002B04D1FFF781FF344B01221A70A8
:400CC0007B68002B55D0324B7A681A603E23FB181B88002B29D11023FB181C22BA185A601023FB182022BA181A601023FB1800221A812023FB181B221A802023FB181B2205
:400D00005A802023FB1804221A711C23FB1800221A703E23FC180E23FA181023FB181100180003F0ADFF030023803E23FB181B88002B22D13E23FC182823FD18AE231A0172
:400D4000144915480023029300230193052300932B0003F0EBFE030023803E23FB181B88002B0AD10D4B01221A700D4B08221A7003E03E23FB1801221A803E23FB181B8889
:400D80001800BD4610B0B0BD94660100D10F002068220020C80000205D160000882200208922002090B585B000AF0200FB1D1A70FB1D1B78022B04D90E23FB1801221A80D3
:400DC00035E0FB1D1B78002B09D11C4B00221A811A4B50225A80194B08229A800EE0FB1D1B78012B0AD1154B96221A81134B802212015A80114BE122D2009A80104BFA1DB4
:400E000012781A700E23FC180C4B18000EF040FD030023800E23FB181B88002B07D1094B1B78DBB204221343DAB2064B1A700E23FB181B881800BD4605B090BDB80B0020E1
:400E4000B2220020B422002080B500AF0EF04CFD054B1B78DBB208221343DAB2024B1A70C046BD4680BDC046B422002090B585B000AF7860294B1B78052B05D00E23FB1877
:400E80000422FF321A8041E07B68002B04D10E23FB1801221A8039E00D23FB1800221A7012E00D23FB181B780D22BA1812787968895C1B4AD3180A1C5A710D23FB181A7805
:400EC0000D23FB1801321A700D23FB181B78052BE7D97B689A79124BDA720E23FC18104B18000EF07BFC030023800E23FB181B88002B0BD1094B04221A700A4B1B88002BA5
:400F000004D0084B1B8818000BF058FC0E23FB181B881800BD4605B090BDC046882200206C2200208622002090B583B000AF104B1B78042B04D0BB1D0422FF321A8011E064
:400F4000BC1D0EF03DFC030023800A4B1B88002B01D00BF04DFCBB1D1B88002B02D1044B05221A70BB1D1B881800BD4603B090BD882200208622002080B582B000AF7860F4
:400F80007B681B789AB27B6801331B789BB21B029BB213439BB21800BD4602B080BDC04690B585B000AF3B1D1880304B1B78022B07D12F4B1B78002B09D02D4B1B78052BE3
:400FC00005D00C23FB180422FF321A8047E00F23FB1800221A7014E00F23FB181A7813005B009B185B00234A9B1804220021180002F0D8FD0F23FB181A780F23FB180132F5
:401000001A700F23FB181B78032BE5D91A4A3B1D1000190002231A0002F0BBFD174B01221A80164B012252425A80FFF70BFE0C23FC183B1D18680FF0EFF9030023800C23AD
:40104000FB181B88002B0AD1094B01221A700C4B1B78DBB202221343DAB2094B1A700C23FB181B881800BD4605B090BD8822002089220020D00B0020A02200208C22002016
:40108000B422002080B582B000AF78607B68DB880D4A934214D10D4B5B88002B08D17B689A880A4B5A807B689A78084B1A7007E0074B1B687A68911D86225200100098477B
:4010C000C046BD4602B080BD052A0000902200206822002080B582B000AF78607B689B880B4A934210D10B4B9B88002B04D17B685A88084B9A8007E0074B1B687A68111DD7
:401100008622520010009847C046BD4602B080BD02290000902200206822002080B582B000AF78600C4B5A887B689B899A420ED10A4B1B6879688322520010009847084B4C
:401140001B78DBB201229343DAB2054B1A70C046BD4602B080BDC0469022002068220020B422002080B500AF044B5B8A002B02D1034B00225A80C046BD4680BDD00B0020DF
:401180009822002080B582B000AF78607B68DB880F4A934218D10F4B5B88002B14D10D4B5B88002B08D17B689A880A4B5A807B689A78084B1A7007E0074B1B687A68911D2C
:4011C0008622520010009847C046BD4602B080BD062A0000982200206822002090B589B000AF0C243C192080080011007B600B23FB18021C1A700A23FB180A1C1A701E23FA
:40120000FB1801221A80214B1B78052B05D01E23FB180422FF321A8030E07B68002B2DD00B23FB181B78002B28D10A23FB181B78012B23D17B681B78022B1FD8144B5B88B3
:40124000002B1BD01023FB187A681A600A23FB181B789AB21023FB189A800D4B5A881023FB181A811E23FC181023FA180C23FB18110018680FF06AF9030023801E23FB1853
:401280001B881800BD4609B090BDC046892200209822002080B582B000AF7860C046BD4602B080BD80B582B000AF7860C046BD4602B080BD80B582B000AF7860C046BD46FC
:4012C00002B080BD80B588B000AF7860394B1B78022B6AD1384B1B88002B66D00C23F918354B022208009B180422190002F051FC7B6859687B681B891A000C23FB1804332A
:40130000180002F046FC0C23FB18180001F03EFA294B1B8801339AB20C23FB181A80274B1B781900264A0B005B005B185B00D31802331A880C23FB185A800C23FB181A88E7
:401340000C23FB185B889A4221D80C23F9181D4B1A785B781B021A4300231204120C1B0C1B04134318000FF06FF8031E12D0164B1B6884225200002110009847134B1B789B
:40138000DBB202229343DAB2104B1A7002E0012000F0ECFB0D4B1B78DBB201229343DAB20A4B1A70044B00221A80C046BD4608B080BDC04689220020D40F0020B3220020AD
:4013C000D00B0020A022002068220020B422002080B588B000AF7860394B1B78022B6AD1384B1B88002B66D00C23F918354B022208009B180422190002F0CBFB7B6859683C
:401400007B681B891A000C23FB180433180002F0C0FB0C23FB18180001F0B8F9294B1B8801339AB20C23FB181A80274B1B781900264A0B005B005B185B00D31802331A88DA
:401440000C23FB185A800C23FB181A880C23FB185B889A4221D80C23F9181D4B1A785B781B021A4300231204120C1B0C1B04134318000EF0E9FF031E12D0164B1B6884226D
:401480005200002110009847134B1B78DBB202229343DAB2104B1A7002E0012000F066FB0D4B1B78DBB201229343DAB20A4B1A70044B00221A80C046BD4608B080BDC046A2
:4014C00089220020D40F0020B3220020D00B0020A022002068220020B422002080B500AF094B00225A70084B00221A70074B1B78052B03D1054B07221A7002E0034B082243
:401500001A70C046BD4680BDA02200208922002080B582B000AF78607B681B78032B3ED1264B1B78DBB21A000223134037D0244B1B78022B10D002DC012B05D024E0032B43
:4015400012D0042B18D01FE01E4B1B680822FF3200211000984717E01A4B1B68842252000021100098470FE0164B1B680A22FF3200211000984707E0124B1B688522520035
:40158000002110009847C0460C4B1B78DBB202229343DAB2094B1A70094B00221A707B681B78042B05D1084B1B78042B01D1FFF7BBFCC046BD4602B080BDC046B422002037
:4015C00089220020682200208822002080B500AFC046BD4680BDC04680B584B000AF78600E23FB1800221A707B689B79002B1CD10F23FB1800221A7012E00F23FB181B78D2
:401600007A68D35C002B04D00E23FB1801221A700BE00F23FB181A780F23FB1801321A700F23FB181B78052BE7D90E23FB181B781800BD4604B080BD80B582B000AF020022
:40164000BB1D1A80C046BD4602B080BD80B582B000AF7860C046BD4602B080BD80B586B000AF02003960FB1D1A70BF4B1B78DBB201221343DAB2BC4B1A70FB1D1B78712BBC
:4016800000D94DE19A00B94BD3181B689F460C23FB1807221A700C23FB1800225A700C23FB18180005F0D2F90C23FB1807221A700C23FB1801225A700C23FB18180005F082
:4016C000C5F9AB4B1B681800FFF786FF031E05D0A74B1B68180003F0FBF903E0A54B180003F0F6F903200DF065FF0823FB183F221A700823FB1800225A700823FB181800BC
:401700000DF076FF9C4B05221A7012E13B681800FFF7FEFE0DE13B681A78984B1A7008E13B683B613B691B78002B00D0FAE03B695B78002B0BD1924B0022DA80904B002267
:401740009A808F4B8F4A1A603B698D4A5A60864B1B78DBB201229343DAB2834B1A70E1E0814B1B78DBB21A002023134000D0DBE0854B1B78102B02D1834B0522DA70834BB9
:401780001B78814A110018000DF04EFDCCE03B681800FFF75BFFCCE03B681800FFF756FF7B4B1B88002B01D00BF022F8724B02221A70BEE0704B05221A70BAE06E4B1B781C
:4017C000022B00D1B2E0684B1B78DBB21A000123134000D1AAE0644B1B78DBB21A00042313400BD0644B03221A705F4B1B78DBB204229343DAB25C4B1A7097E05A4B1B78CC
:40180000DBB21A00082313400BD05B4B05221A70554B1B78DBB208229343DAB2524B1A7084E0554B1B78032B00D07FE0524B05221A707BE03B681B881800FFF7FDFE78E09A
:40184000524A3B681000190002231A0002F0A1F94A4B00221A704F4B00221A70FFF7B6FE67E0FFF73BFE64E03B685B88162B05D81623FB183A6852881A8003E01623FB1815
:4018800017221A801623FB1819883B681A8800231204120C1B0C1B04134318000FF018F947E03B68180000F079F842E03B68180000F094FA3DE000F08DFE3AE03B681800FD
:4018C00000F034FD35E03B68180000F0D3FE30E03B681800FFF7E6FC2BE03B681800FFF71DFC3B681800FFF7E5FC1F4B1B78DBB21A00012313401BD13B6818680EF052FDB5
:4019000016E03B681800FFF7DDFC12E03B681800FFF75EFD0DE03B681800FFF7BBFC08E0C04606E0C04604E0C04602E0C04600E0C0460D4B1B78DBB21A00112313400ED04B
:40194000094B1B78DBB201229343DAB2064B1A70114B1B68FA1D1278396810009847C046BD4606B080BDC046B4220020A8660100CC0B0020C40B0020882200209C220020EE
:40198000EC0F0020A80B0020E80B0020A022002086220020892200206822002080B586B000AF78600023FB606B4B1B78012B00D0CDE06A4B1B78DBB21A000223134000D16D
:4019C000C5E00A23FB187A6812891A800A23FB181B88062B05D00A23FB181B88142B00D0AEE00823FB187A6852891A801423FB1800221A8092E07B685A681423FB181B88E3
:401A0000D318FB601323FB1800221A70FB681A88534B1B889A4200D276E0FB681A88504B5B889A4200D96FE00A23FB181B88062B00D065E01623FB1800221A8055E01623FB
:401A4000FB181A88474913005B009B185B00CB1804331A88FB689B889A423FD11623FB181A88404913005B009B185B005B5A002B13D11623FB181A883A4913005B009B182E
:401A80005B00FA68CB1811000422180002F081F81323FB1801221A7020E01623FB181B88022B0FD81623FB181B885A1C2D4913005B009B185B00CB1804331A88FB689B883A
:401AC0009A420BD0284B1B68FA68111D0C22FF32100098471323FB1801221A701623FB181A881623FB1801321A801623FB181B88032B09D81323FB181B78002B9FD003E007
:401B0000FB68180000F042FE1423FB181422B9180A22BA18098812888A181A801423FA180823FB1812881B889A4200D263E70B4B1B78DBB201229343DAB2084B1A7006E0CA
:401B4000094B1B680822FF32002110009847C046BD4606B080BDC04689220020B42200208C220020D00B00206822002080B582B000AF0200FB1D1A70FB1D1B78002B06D087
:401B8000344B1B780133DAB2324B1A700CE0314B00221A70304B00221A8005E02D4B1B780133DAB22B4B1A702A4B1B78032B19D8284B1B781900294A0B005B005B185B0064
:401BC0009A5A274B1B889A42E8D3224B1B781900224A0B005B005B185B009A5A204B5B889A42DBD81B4B1B78032B28D8194B1B781A0013005B009B185B00184A9918194B90
:401C00001A785B781B021A4300231204120C1B0C1B04134318000EF017FC031E15D0124B1B68842252000021100098470F4B1B78DBB202229343DAB20C4B1A7005E00C4B9E
:401C400003221A70002000F0BBFAC046BD4602B080BDC046B3220020D40F0020D00B00208C220020A022002068220020B42200208922002080B582B000AF78607B68DB88B0
:401C80004F4A934200D184E04D4A93420BDC4D4A934224D04B4A934200DD68E0A822920193420AD087E0484A93423CD0474A93424BD0474A934224D07DE0464B1B88002BC2
:401CC00004D17B689A88434B1A8074E0424B1B687A68911D86225200100098476BE03D4B5B88002B04D17B689A883A4B5A8062E0394B1B687A68911D862252001000984729
:401D000059E0344B1B89002B04D17B689A88314B1A8150E0304B1B687A68911D862252001000984747E02B4B5B89002B04D17B689A88284B5A813EE0274B1B687A68911D0D
:401D4000862252001000984735E0224B9B89002B04D17B689A881F4B9A812CE01E4B1B687A68911D862252001000984723E0194B9B88002B04D17B689A88164B9A801AE0D5
:401D8000154B1B687A68911D862252001000984711E0104BDB88002B04D17B689A880D4BDA8007E00C4B1B687A68911D8622520010009847C046C046BD4602B080BDC04623
:401DC000032A0000012A0000A62A0000C92A0000042A0000A42200206822002090B593B000AF7860CA4B1B78DBB21A000223134000D1D9E13E23FB187A6812891A803C23BF
:401E0000FB187A6852891A807B685B683B64C14B1B78032B00D0CFE04623FB1800221A80C0E03B6C1800FFF7A7F803001A002423FB181A803B6C02333B643B6C1A7824236F
:401E4000FB189A703B6C01333B643B6C1800FFF793F803001A002423FB189A803B6C02333B643E23FB181B88152B33D12423FB1802229A752423FB180622396C9B1810228B
:401E8000180001F086FE3B6C10333B64A24B1B781900A24A0B005B005B185B00D31804331B881A009E4B9A4265D09B4B1B78012B63D9994B1B78022B5FD8974B1B789BB2FC
:401EC000023B9BB22422BA181100180000F0C6FCC04652E03E23FB181B88072B50D12423FB1801229A753B6C1800FFF745F803001A002423FB18DA803B6C02333B64864B28
:401F00001B781900854A0B005B005B185B00D31804331B88834A93420CD0834A93420FD0C0225201934211D12423FB181800FFF7A1FE25E02423FB181800FFF7A3F81FE034
:401F40002423FB181800FFF71DF919E0724B1B78012B14D9704B1B78022B10D86E4B1B789BB2023B9BB22422BA181100180000F075FCC04603E0C04602E0C04600E0C0469C
:401F8000634B1B78DBB201229343DAB2604B1A704623FB184622B9183E22BA18098812888A181A804623FA183C23FB1812881B889A4200D235E7F7E0564B1B78022B00D04F
:401FC000F2E04623FB1800221A80E4E03B6C1800FEF7D2FF03001A000C23FB181A803B6C02333B643B6C1800FEF7C6FF03001A000C23FB185A803B6C02333B643B6C18002E
:40200000FEF7BAFF03001A000C23FB189A803B6C02333B643E23FB181B88062B30D10C23FB1802229A750EF08BFA0C23FB1859883E4B1A785B781B021A4300231204120CDB
:402040001B0C1B04134318000EF01CFA031E07D1374B0C22BA1813CA13C313CA13C388E0344B1B6884225200002110009847284B1B78DBB202229343DAB2254B1A7078E0DA
:402080003E23FB181B88082B00D072E00C23FB1801229A753B6C1800FEF76EFF03001A000C23FB18DA803B6C02333B644423FB1800221A8047E04423FB181A8817491300FF
:4020C0005B009B185B00CB1804331A880C23FB18DB889A4230D14423FB181A880F4913005B009B185B005B5A002B25D14423FB181A880A4913005B009B185B000C22BA1888
:402100000220CB1811180422180001F042FD1FE0B422002089220020B3220020D00B0020FEFF00000118000002180000A0220020D40F0020682200204423FB181A88442311
:40214000FB1801321A804423FB181B88032BB2D9174B1B781900174A0B005B005B185B00D31804331B881A00134B9A4200D000E0C046124B1B78DBB201229343DAB20F4BDB
:402180001A704623FB184622B9183E22BA18098812888A181A804623FA183C23FB1812881B889A4200D211E7C046BD4613B090BDB3220020D00B002012180000B42200204E
:4021C00080B582B000AF0200FB1D1A70FB1D1B78002B06D0354B1B780133DAB2334B1A7009E0324B00221A7005E0304B1B780133DAB22E4B1A702D4B1B78032B19D82B4B36
:402200001B7819002A4A0B005B005B185B009A5A284B1B889A42E8D3244B1B781900244A0B005B005B185B009A5A224B5B889A42DBD81E4B1B78032B2DD81C4B1B781A00D6
:402240001B4913005B009B185B001B4A585ACB185B881B04034319001378527812021A4300231204120C1B0C1B04134318000EF0B7F8031E15D0114B1B680A22FF32002142
:40228000100098470E4B1B78DBB202229343DAB20B4B1A7005E00B4B04221A70002000F0E9F8C046BD4602B080BDC046B3220020D00B00208C220020A0220020682200202C
:4022C000B42200208922002080B582B000AF3B0000221A803B0000225A80114B1B78002B09D1104B5B8801339AB23B001A800E4B1A893B005A803B1D3A0012681A603A1D64
:40230000002311880904090C1B0C1B040B43528812041B041B0C13431800BD4602B080BDB322002090220020D00B002080B58AB000AF78600823FB1800225A804A4B1B787B
:40234000042B00D08BE0494B1B78DBB21A000223134000D183E01E23FB187A6812891A807B681A7B0823FB181A750823FB187A6812881A800823FB181B7D012B04D1262355
:40238000FB1804221A8003E02623FB1812221A807B685B683B622423FB1800221A804EE03B6A1800FEF7E8FD03001A000823FB185A803B6A02333B620823FB181B7D022B70
:4023C00015D10823FB183A6A043311001022180001F0DFFB3B6A10333B62254B1B78012B23D10823FB18180000F0FEFB1DE03B6A1800FEF7C1FD03001A000823FB189A80EF
:402400003B6A02333B621A4B1B78002B04D10823FB181800FEF75EFE154B1B78012B04D10823FB18180000F0DFFB2423FB182422B9182622BA18098812888A181A80242339
:40244000FA181E23FB1812881B889A42A8D3074B1B78DBB201229343DAB2044B1A70C046BD460AB080BDC04689220020B4220020B322002080B584B000AF0200FB1D1A701A
:402480000C23FB1800221A800C23FB1800225A804A4B1B78012B17D0FB1D1B78002B0DD0464B1B780133DAB2444B1A70434B1B78012B09D1FB1D00221A7005E03F4B002279
:4024C0001A70FB1D01221A703C4B1B78012B0CD1FB1D1B78180000F0C5FA03001A000C23FB181A60FB1D01221A70344B1B78012B06D0FFF7E9FE03001A000C23FB181A6090
:402500000C23FB181A882E4B1B889A4215D90C23FB181A882A4B5B889A420ED80C23FB185A88274B1B889A4207D30C23FB181A880C23FB185B889A4203D9204B1B78012BF9
:40254000A6D91E4B1B78012B21D80C23F9181D4B1A785B781B021A4300231204120C1B0C1B04134318000DF025FF031E21D0164B1B6885225200002110009847134B1B7818
:40258000DBB202229343DAB2104B1A7011E0104B05221A700C4B1B681222FF320021100098470A4B1B78DBB202229343DAB2074B1A70C046BD4604B080BDC046B32200200B
:4025C0008C220020A022002068220020B42200208922002080B500AF244B1B78DBB21A00022313403FD0224B1B78022B17D002DC012B05D037E0032B1DD0042B27D032E04F
:402600001B4B02221A700020FFF7B0FA174B1B78DBB201229343DAB2144B1A7023E00120FFF7A4FA114B1B78DBB201229343DAB20E4B1A7017E00120FFF7C2FD0B4B1B7884
:40264000DBB201229343DAB2084B1A700BE00120FFF710FF054B1B78DBB201229343DAB2024B1A70C046C046BD4680BDB42200208922002080B582B000AF7860084B1B78AD
:40268000DBB21A000223134005D07B689B790A2B01D1FFF79FFFC046BD4602B080BDC046B422002080B582B000AFBB1D00221A8060E0BB1D1B889A1C324913005B009B18E9
:4026C0005B005B5A002B50D13B1D00221A8040E0BB1D1B882C4A1B01D3180C331A683B1D1B881B01D31800221A80BB1C00221A8019E0BB1D1B88244A1B01D3180C331A6896
:402700003B1D1B881B01D318D968BB1C1A8813005B009B189B00CB1800221A80BB1C1A88BB1C01321A80BB1D1B88174A1B01D3180C331A683B1D1B881B01D3189B7A9BB25D
:40274000BA1C12889A42D4D33B1D1A883B1D01321A80BB1D1B880C4A1B01D31809331B789BB23A1D12889A42B2D3BB1D1A88BB1D01321A80BB1D1B88002B9AD0C046BD46C9
:4027800002B080BDD00B00200C0C002080B584B000AF78600D23FB1800221A700E23FB1800221A8046E00E23FB181B88284A1B01D31808331B78022B35D10E23FB181B88AA
:4027C000234A1B01D318043318687B6804331022190001F0CFF9031E25D10E23FB181B889A1C1C4913005B009B185B005B5A002B19D10E23FB181B889A1C164913005B00C7
:402800009B185B007A68CB1811000422180001F0C0F9114B1B780133DAB20F4B1A700D23FB1801221A700E23FB181A880E23FB1801321A800E23FB181B88002B04D10D233B
:40284000FB181B78002BAED0C046BD4604B080BD0C0C0020D00B0020B322002080B584B000AF02003960BB1D1A800D23FB1800221A70774B1B68002B0FD0764B1B88BA1D49
:4028800012889A4206D1724B1B683A681288013A92B21A806E4B00221A600E23FB1800221A80ABE00C23FB1800221A703B689B7D022B27D1BB1D1B88674A1B01D3180C3316
:4028C0001A680E23FB181B881B01D3181B7A022B18D1BB1D1B88604A1B01D3180C331A680E23FB181B881B01D31858683B6806331022190001F03EF9031E03D10C23FB189C
:4029000001221A703B689B7D012B27D1BB1D1B88514A1B01D3180C331A680E23FB181B881B01D3181B7A012B18D1BB1D1B884A4A1B01D3180C331A680E23FB181B881B01BB
:40294000D31858683B6806330222190001F012F9031E03D10C23FB1801221A700C23FB181B78012B43D1BB1D1B883B4A1B01D3180C331A680E23FB181B881B01D3181B8845
:40298000002B34D1BB1D1B88334A1B01D3180C331A680E23FB181B881B01D3183A6892881A80BB1D1B882C4A1B01D3180C331A680E23FB181B881B01D3183A6892785A72C4
:4029C000BB1D1B88244A1B01D3180C331A680E23FB181B881B01D3189A1C1D4B1A601D4BBA1D12881A800D23FB1801221A700E23FB181A880E23FB1801321A80BB1D1B88CB
:402A0000154A1B01D31809331B789BB20E22BA1812889A4205D20D23FB181B78002B00D140E70B4B1B68002B0DD0094B1A680B4B1B7818000A4903005B001B185B00CB18F2
:402A400002331B881380C046BD4604B080BDC046F80F0020FC0F00200C0C0020B3220020D00B002080B584B000AF0200FB1D1A700823FB1800221A800823FB1800225A8081
:402A8000FB1D1B78002B2DD0524B1B880133524A1288524912018A1809321278934206D24C4B1B8801339AB24A4B1A8023E04A4B1B88013309D1484B1B8801339AB2464B5E
:402AC0001A80444B00221A8015E0454B1B780133DAB2434B1A703F4B1B8801339AB23D4B1A8008E03C4B00221A803A4B00221A80FB1D01221A70384B1B88384A1B01D31852
:402B000009331B789AB2334B1B889A421FD9324B1B88324A1B01D3180C331A682D4B1B881B01D3181B8801339AB20823FB181A80294B1B88294A1B01D3180C331A68254B42
:402B40001B881B01D3185A880823FB185A800823FB181A88234B1B889A4215D90823FB181A88204B5B889A420ED80823FB185A881C4B1B889A4207D30823FB181A8808231B
:402B8000FB185B889A420CD9134B1B88134A1B01D31809331B789AB20E4B1B889A4200D96EE70C23FB180822BA1812681A600C23FA18002311880904090C1B0C1B040B43F3
:402BC000528812041B041B0C13431800BD4604B080BDC046F60F0020F40F00200C0C0020B32200208C22002080B584B000AF78600E23FB1800221A700F23FB1800221A7023
:402C0000B9E00D23FB1800221A707B681B7D022B37D1664B1B88664A1B01D3180C331A68644B1B881B01D318D9680F23FB181A7813005B009B189B00CB181B7A022B20D1CD
:402C40005A4B1B885A4A1B01D3180C331A68594B1B881B01D318D9680F23FB181A7813005B009B189B00CB1858687B6804331022190000F07FFF031E03D10D23FB180122AD
:402C80001A707B681B7D012B37D1484B1B88484A1B01D3180C331A68464B1B881B01D318D9680F23FB181A7813005B009B189B00CB181B7A012B20D13C4B1B883C4A1B01DB
:402CC000D3180C331A683B4B1B881B01D318D9680F23FB181A7813005B009B189B00CB1858687B6804330222190000F043FF031E03D10D23FB1801221A700D23FB181B783D
:402D0000012B31D1294B1B88294A1B01D3180C331A68284B1B881B01D318D9680F23FB181A7813005B009B189B00CB181B88002B1AD11E4B1B881E4A1B01D3180C331A684A
:402D40001C4B1B881B01D318D9680F23FB181A7813005B009B189B00CB187A6852881A800E23FB1801221A700F23FB181A780F23FB1801321A700D4B1B880D4A1B01D31812
:402D80000C331A680B4B1B881B01D3189B7A0F22BA1812789A4205D20E23FB181B78002B00D12EE7C046BD4604B080BDF40F00200C0C0020F60F002080B500AF044B1B68E5
:402DC00080221340DB09DBB21800BD4680BDC0460402044080B582B000AF094B1B68DAB2FB1D7F218A431A70054BFA1D12781A60FB1D1B78DB09DBB21800BD4602B080BDAC
:402E00001002044080B584B000AF0200FB1D1A700D4B1B68DAB20F23FB187F210A401A70FB1D1B78DB01D9B20F23FB180F22BA1812780A431A70044B0F22BA1812781A604F
:402E4000C046BD4604B080BD0003044080B500AF044B1B6880221340DB09DBB21800BD4680BDC0460403044080B582B000AF786000F04EF87B68180000F00AF8032000F028
:402E800015F800F03BF8C046BD4602B080BDC04680B582B000AF7860034B7A689A64C046BD4602B080BDC0460000002090B585B000AF0200FB1D1A701623FB600B23FC1807
:402EC00000F07FFA030023700A4B0A4A12680A491140FA1D1078FA68904002000A431A600B23FB181B78180000F06FFAC046BD4605B090BD00E400E0FFFF3FFF80B500AF3E
:402F0000024B04221A60C046BD4680BD00E100E080B500AF024B04221A60C046BD4680BD80E100E080B500AF024B04221A60C046BD4680BD80E200E090B58BB000AF7860E5
:402F40002723FC1800F03DFA03002370194B1A680C23FB181A60184B1A680C23FB185A607B68033B154AD35C1A000C23FB189A60134B1A680C23FB18DA601C23FB18114AA5
:402F80001A600C23FA181C23FB185A600E4B1C22BA181A600D4B0E4A1A600B4B1B682723FB181B78180000F010FAC046BD460BB090BDC04608010B4000010B40A0680100A2
:402FC00030001040B6EA000008001040040010401700008080B584B000AF78600023FB60154B154A126801210A431A60134B144A1A60144B134A1268802109020A431A60FF
:403000007B68002B12D01023FB600CE0012000F05DF800F019F8031E02D00023FB6005E07B68013B7B607B68002BEFD1FB681800BD4604B080BDC04660F02E4078002E4088
:403040000220000010002E4080B582B000AF054B1B68012213407B607B681800BD4602B080BDC0460C002E4080B582B000AF0200FB1D1A7001BEC046BD4602B080BDC04692
:4030800080B582B000AF786009E00D4B1B68180000F08EF97B680B4A944663447B607A6880231B029A42F0D8074B1B687A685343180000F07DF9C046BD4602B080BDC0462C
:4030C000280C00200080FFFF200C002080B582B000AF0200BB1D1A80BB1D1B88044A12785343180000F064F9C046BD4602B080BD240C002080B500AF0F4B0F4A126801215F
:403100008A431A600C4B0C4A126802218A431A600A4B0A4A126830218A4310210A431A60064B064A126807218A4301210A431A60C046BD4680BDC04600F02E4000FF2E406E
:4031400080B500AF0F4B0F4A126802218A431A600D4B0D4A126807218A4302210A431A60094B094A126830218A4320210A431A60044B044A126801210A431A60C046BD467C
:4031800080BDC04600F02E4000FF2E4080B500AFFFF7B0FF044B044A1268802109060A431A60C046BD4680BD00F02E4080B584B000AF78600C4B1B6801221340FB607B68C8
:4031C000002B02D0012B03D005E0FFF793FF06E0FFF7B6FF03E00020FFF746FFC046FB681800BD4604B080BD00F02E4080B500AF00F062F8C046BD4680BDC04680B500AF66
:40320000064B064A1268802109060A431A6000F019F800F01DF8C046BD4680BD0000244080B500AF064B1B78002B04D1FFF7DEFF034B01221A70FFF7E1FFC046BD4680BD9A
:40324000FE0F002080B500AFC046BD4680BDC04680B500AF00F092F8C046BD4680BDC04680B582B000AF7860C046064B1B681F221340082BF9D0044B7A681A60C046BD463B
:4032800002B080BD080224404002244080B500AF074B074A1268802149020A431A60044B034A126803490A401A60C046BD4680BD04022440FFFFFEFF80B500AF1B4B1C4AD6
:4032C0001A601C4B00221A601B4B1C4A1A601C4B1C4A1A601C4B07221A601C4B00221A601B4B01221A601B4B164A1A601A4B00221A601A4B04221A60194B00221A60194B0A
:4033000000221A60184B00221A60184B00221A60174B00221A60174B00221A60154B1B689AB2154B1A80C046BD4680BD000024400B000002400024404800244001000A00BC
:403340000003244007000080040324401003244044002440000224400402244050002440880E2440C80E2440480F2440080F2440C80F2440880F24400010002080B500AF9D
:40338000074B074A126807490A40902109040A431A60054B054A12881A60C046BD4680BD00010240FFFF0FFF880F2440001000200230800803D00138FDD1C046C046C046B8
:4033C0007047EFF3108072B6704780F31088704780B582B000AF78600A00BB1C1A80BB1C1A887B681A60C046BD4602B080BDC04680B582B000AF78600A00BB1C1A80BB1C86
:403400001A887B681A60C046BD4602B080BDC04680B584B000AF494B1B78DBB21B02484A1278D2B21343FB60464B1B78DBB21B02454A1278D2B21343BB60BB68434A9342F4
:4034400007D1FB68072B04D1414BBB600423FB6009E0BA68D4231B019A4204D1FB68042B01D13B4BBB603B4BBA681A603A4BFA681A603A4B1B78DBB21B02394A1278D2B237
:403480001343FB60FA6880239B019A4202D0FB68002B01D1334BFB60334BFA681A60334B1B78DBB21B02324A1278D2B21343FB60FB68304A934206D0FB682F4A934202D078
:4034C000FB68052B01D12D4BFB602D4BFA681A602C4B1B681B097B602B4B1B68AA2B29D17B68012B26D9214B1B78DBB20E2B21D1264B1B78DBB29BB21B0299B2244B1B7872
:40350000DBB29AB2BB1C0A431A80224BBA1C12881A60214B1B78DBB29BB21B0299B21F4B1B78DBB29AB23B000A431A801C4B3A0012881A60C046BD4604B080BDD9F0FF0FDE
:40354000D8F0FF0FDFF0FF0FDEF0FF0F580B0000580D00006C002E4074002E40DBF0FF0FDAF0FF0F0220000078002E40DDF0FF0FDCF0FF0F0F0F000005050000050F00008E
:4035800080002E40EC0F00F0E00F00F06DF2FF0F6CF2FF0F84002E406FF2FF0F6EF2FF0F94002E4080B582B000AF0200BB1D1A80BB1D1B881800FFF789FDC046BD4602B055
:4035C00080BDC04680B582B000AF78607B681800FFF756FDC046BD4602B080BD80B500AF00F0ECF8C046BD4680BDC04680B500AF00F0F0F8C046BD4680BDC04680B500AF6E
:4036000000F0E8F8044B180000F0A2F8022000F0ADF8C046BD4680BD2138000080B500AF034B180000F080F8C046BD4680BDC0462138000080B500AF0223FF331800BD46C6
:4036400080BDC04680B582B000AF78602B231800BD4602B080BDC04680B582B000AF78602B231800BD4602B080BDC04680B582B000AF78602B231800BD4602B080BDC04623
:4036800080B582B000AF78602B231800BD4602B080BDC04680B582B000AF78602B231800BD4602B080BDC04680B582B000AF78602B231800BD4602B080BDC04680B582B0BF
:4036C00000AF78602B231800BD4602B080BDC04680B582B000AF78602B231800BD4602B080BDC04680B500AF2B231800BD4680BD80B582B000AF0200FB1D1A702B231800EF
:40370000BD4602B080BDC04680B582B000AF786039602B231800BD4602B080BD80B500AFC046BD4680BDC04680B582B000AF786000F050F87B68180000F00AF8022000F05D
:4037400015F800F03BF8C046BD4602B080BDC04680B582B000AF7860034B7A681A67C046BD4602B080BDC0460000002090B585B000AF0200FB1D1A700623FB600B23FC18CB
:40378000FFF71FFE030023700B4B0B4A1268C0218A431100FA1D1078FA68904002000A431A600B23FB181B781800FFF70EFEC046BD4605B090BDC0460CE400E080B500AF2F
:4037C000034B802252011A60C046BD4680BDC04600E100E080B500AF034B802252011A60C046BD4680BDC04680E100E090B583B000AFFC1DFFF7E5FD03002370074B074A80
:40380000126804218A431A6030BFFB1D1B781800FFF7DBFDC046BD4603B090BD10ED00E080B500AF12F00AFFC046BD4680BDC046002243088B4274D303098B425FD3030A68
:403840008B4244D3030B8B4228D3030C8B420DD3FF22090212BA030C8B4202D31212090265D0030B8B4219D300E0090AC30B8B4201D3CB03C01A5241830B8B4201D38B03A4
:40388000C01A5241430B8B4201D34B03C01A5241030B8B4201D30B03C01A5241C30A8B4201D3CB02C01A5241830A8B4201D38B02C01A5241430A8B4201D34B02C01A52414F
:4038C000030A8B4201D30B02C01A5241CDD2C3098B4201D3CB01C01A524183098B4201D38B01C01A524143098B4201D34B01C01A524103098B4201D30B01C01A5241C3089E
:403900008B4201D3CB00C01A524183088B4201D38B00C01A524143088B4201D34B00C01A5241411A00D20146524110467047FFE701B5002000F0F0F802BDC0460029F7D089
:4039400076E7704703460B437FD4002243088B4274D303098B425FD3030A8B4244D3030B8B4228D3030C8B420DD3FF22090212BA030C8B4202D31212090265D0030B8B4252
:4039800019D300E0090AC30B8B4201D3CB03C01A5241830B8B4201D38B03C01A5241430B8B4201D34B03C01A5241030B8B4201D30B03C01A5241C30A8B4201D3CB02C01A6B
:4039C0005241830A8B4201D38B02C01A5241430A8B4201D34B02C01A5241030A8B4201D30B02C01A5241CDD2C3098B4201D3CB01C01A524183098B4201D38B01C01A5241D1
:403A000043098B4201D34B01C01A524103098B4201D30B01C01A5241C3088B4201D3CB00C01A524183088B4201D38B00C01A524143088B4201D34B00C01A5241411A00D221
:403A400001465241104670475DE0CA0F00D04942031000D34042534000229C4603098B422DD3030A8B4212D3FC22890112BA030A8B420CD3890192118B4208D38901921128
:403A80008B4204D389013AD0921100E08909C3098B4201D3CB01C01A524183098B4201D38B01C01A524143098B4201D34B01C01A524103098B4201D30B01C01A5241C30856
:403AC0008B4201D3CB00C01A524183088B4201D38B00C01A5241D9D243088B4201D34B00C01A5241411A00D20146634652415B10104601D34042002B00D5494270476346C8
:403B00005B1000D3404201B5002000F005F802BD0029F8D016E770477047C046014B18687047C046AC0F00200E4B70B500251E000D4CE41AA410A54204D0AB00F358984721
:403B40000135F8E712F010FF084B00251E00084CE41AA410A54204D0AB00F35898470135F8E770BD7469010074690100746901007C69010030B50024A24208D0035D651C8B
:403B80000C5DA34201D0181B02E02C00F4E7002030BD002310B59A4203D0CC5CC4540133F9E710BD03008218934202D019700133FAE770470FB40B4B13B51C68002C05D006
:403BC000A369002B02D1200000F0D0F905AB049AA1682000019300F095FB16BC08BC04B01847C046AC0F0020F8B505000F001400002804D08369002B01D100F0B7F9234B05
:403C00009C4201D16C6808E0214B9C4201D1AC6803E0204B9C4200D1EC68A369A360A3891B070AD52369002B07D023682269FEB2981A636998420FDB08E02100280000F0A4
:403C40002BF80028F1D0012040421DE02100280000F01EF90028F6D1A3680130013BA36023685A1C22601F706369984205D0A3893000DB0708D50A2E06D12100280000F0EE
:403C800007F90028DFD13000F8BDC046D4680100F468010014690100364B70B51D6806000C00002D05D0AB69002B02D1280000F05DF9314B9C4201D16C6808E02F4B9C422A
:403CC00001D1AC6803E02E4B9C4200D1EC680C22A35E9AB2110723D4D10607D409220120326037321343A381404242E0530713D5616B002908D023004433994202D0300058
:403D000000F02CFA002363632422A3899343A38100236360236923600822A3891343A3812369002B0BD1A0238022A1899B0092000B40934203D02100300000F0D1F90123E2
:403D4000A289134005D00023A36063695B42A36103E0920700D46369A36000202369834207D10C22A35E1A0603D540221343A381013870BDAC0F0020D4680100F468010017
:403D800014690100F7B58A8905000C0013075AD44B68002B02DC0B6C002B19DDE76A002F16D000232E682B6080235B011A4001D0606D14E00123216A2800B847431C0ED170
:403DC0002B68002B0BD01D2B01D0162B02D12E6000205AE04022A3891343A38155E0A3895B0706D56368C01A636B002B01D0236CC01A00230200216A2800E76AB847A38943
:403E0000421C06D129681D293AD8204ACA40D20736D50022626022692260DB0405D5431C02D12B68002B00D16065616B2E600029CED023004433994202D0280000F08EF9D5
:403E40000020606321E00F69002FC1D00B680F60DB1B01930023920700D14B69A36003E0019B3F181B1A0193019B002BB0DD019B3A00216A2800A66AB0470028F0DCA389D3
:403E8000402201201343A3814042FEBD010040200B6970B505000C00002B01D100201CE0002804D08369002B01D100F05FF80B4B9C4201D16C6808E0094B9C4201D1AC689E
:403EC00003E0084B9C4200D1EC680C22A35E002BE4D021002800FFF755FF70BDD4680100F46801001469010010B5024900F0B0F810BDC046913E0000002310B5040003600A
:403F00004360836081814366C281036143618361190008225C30FFF745FE054B24626362044BA362044BE362044B236310BDC04681480000A9480000E14800000D490000B5
:403F400070B568254B1E5D430E002900743100F051F9041E08D000212A00016046600C30A0606832FFF71EFE200070BD836913B50400002B28D18364C3640365134B144AE1
:403F80001B6882620193984201D101238361200000F020F86060200000F01CF8A060200000F018F80022E06004216068FFF7A4FF01220921A068FFF79FFF02221221E068B6
:403FC000FFF79AFF0123A36113BDC046D0680100E93E0000F8B51D4B06001D68AB69002B02D12800FFF7C2FF4835AC686B68013B05D40C22A75E002F10D06834F7E72B687B
:40400000002B01D02D68F0E704213000FFF798FF28600028F6D10C23336016E0012320005B42E3810233A38167662760A760676027616761A7615C3008223900FFF7B2FD5B
:4040400020006763A763A764E764F8BDD0680100F7B504000700002601914834002C16D06368A5680093009B013B00930DD4AB89012B08D90E22AB5E013304D02900380072
:40408000019B984706436835EDE72468E6E73000FEBD000070B50E001D000E23C95E90B01400002906DA00232B60B3891B060FD540230FE001AA00F055FC0028F3DBF0234C
:4040C000029A1B021340054A9B185A4253412B608023DB000020236010B070BD00E0FFFFF7B502268B8905000C00334210D101AB6A46FFF7CFFF00990700280000F07AF872
:4041000000280CD10C22A35E9A0523D43343A3812300473323602361012363611AE080220D4BAB62A38920601343A381009B20616361019B002B0AD00E23E15E280000F05F
:4041400023FC002803D00122A3891343A381A3891F43A781F7BDC046E93E000070B50500002944D00C1F2368002B00DAE418280000F03BFC1E4A13681100002B02D16360A3
:40418000146031E0A3420DD92268A018834203D118685B688218226063600C6024E0A24203D813005A68002AF9D11E689819A0420BD12168711858181960824214D11068A9
:4041C0005268411819605A600EE0A04202D90C232B6009E021686018824203D1106852684118216062605C60280000F0FFFB70BD2C210020032370B5CD1C9D430835060005
:404200000C2D01D20C2501E0002D01DBA94202D90C23336048E0300000F0E7FB234B1C681A002100002913D00B685B1B0DD40B2B02D90B60CC181EE08C4202D16368136065
:404240001AE04B6863600C0016E00C004968E9E7174C2368002B03D1300000F0FFFA20602900300000F0FAFA431C18D00323C41C9C43A0420DD12560300000F0B7FB200019
:4042800007220B30231D9043C31A0ED05A42E2500BE0211A300000F0E1FA431CEBD10C233000336000F0A2FB002070BD2C21002028210020936810B5013B9360002B05DA27
:4042C0009469A34208DBCBB20A2B05D01368581C10601970C8B201E0FFF786FC10BDF8B506000F001400D518AC4208D021783A003000FFF7DFFF0134431CF5D100E0002030
:40430000F8BD0000F0B59FB006000F0002920593002804D08369002B01D1FFF727FE7F4B9F4201D1776808E07D4B9F4201D1B76803E07C4B9F4200D1F768BB891B070AD5B5
:404340003B69002B07D0002306AD6B6120336B761033AB763DE039003000FFF79DFC0028F1D001204042D6E0059A111D12680591002A00DA7FE00992013423782E2B00D131
:404380008DE021780322684800F024FB002807D0654B2A68C01A4023834013432B6001342178631C062261480293297600F012FB002800D19DE05E4B002B00D090E00722EF
:4043C000059B07339343083305936B69039A9B186B61029C2378002B04D1029BE31A049312D003E0252BF8D00134F3E7049B029A39003000FFF773FF431C00D186E06A697F
:40440000049B944663446B612378002B7ED00122002352426A6002A95432521801342B60EB60AB601370AB6521780522414800F0D1FA002808D03F4B2A68C01A01238340B3
:4044400013432B600134EFE72B68DA0604D55322202102A8121811701A0704D553222B2102A81218117022782A2A00D17CE7099B00200A2105E05242EA60022213432B6010
:404480007AE72278303A092A04D84B4301349B180120F6E7002800D16FE709936DE763782A2B0AD1059B02341A1D1B680592002B01DA01235B42079363E700230A201A0091
:4044C00001346B6021783039092904D84243013452180123F6E7002B00D152E7079250E705AB00933A00144B2900300000E000BF07E005AB00933A000F4B2900300000F0A7
:404500008BF80390039B013300D05EE7BB895B0600D526E70B981FB0F0BDC046D4680100F4680100146901003A6901003E6901000000000034690100DF420000F7B51700EC
:4045400001938A680B6900900C00934200DA130022003B6043321278002A01D001333B6023689B0602D53B6802333B60062523681D401ED0230043331B785A1E93412268E4
:4045800092061CD53020E1184331087021005A1C45310978A2184332023311700FE022000123193201990098089EB047431C0ED00135E3683A689B1A9D42F0DBDAE72200D9
:4045C000019943320098089DA847431C02D10120404220E006232068E1683A6803400025042B03D18D1AEB43DB171D40A3682269934201DD9B1AED180027BD420AD022005B
:4046000001231A3201990098089EB047431CDED00137F2E70020FEBDF0B58BB006920A0043320793059004920A7E0C00109B6E2A00D1ABE011D8632A22D009D8002A00D10F
:40464000B5E0582A00D0C5E045310A70814A4FE0642A1DD0692A1BD0BCE0732A00D1AAE009D86F2A29D0702A00D0B3E0202209680A43226037E0752A1FD0782A33D0A9E072
:404680000E001A684236111D196013683370A4E021681A68080606D4490604D5111D19600023D55E02E0111D19601568002D3BDA2D23049A6D42137036E021681A680806FA
:4046C00006D4490604D51568111D1960ADB202E0111D196015685F4B227E039308276F2A1DD00A271BE022007821453211705A4A19680392081D226818600D68100602D479
:40470000500600D5ADB2D30702D520231A4322601027002D03D1202322689A4322602300002243331A7002E00A274A4B03936368A360002B09DB0422216891432160002D27
:4047400005D1049E002B11D07BE0002D79D0049E28003900FFF7F2F8039B013E5B5C280033703900FFF764F8051EF1D1082F09D12368DB0706D563682269934202DC30237D
:40478000013E3370049B9B1B23612BE009681A68080607D4490605D5111D19601368A28A1A8004E0111D1960136862691A600023049E236116E01A68111D196016680021F4
:4047C0006268300000F006F9002801D0801B6060636803E0260042363270012323610023049A1370079B09AA00932100069B0598FFF7A4FE431C02D10120404227E023695B
:40480000320006990598079DA847431CF4D0236800259B070FD4099BE068984217DA180015E022000123193206990598079EB047431CE1D00135E368099A9B1A9D42F0DB5F
:40484000E9E72600039B42361B7833708EE70BB0F0BDC0464569010056690100002370B5064C050008002360FCF7FAF8431C03D12368002B00D02B6070BDC046B822002024
:4048800070B50C000E25495F00F0B2F8002803DB636D1B18636503E0A289024B1340A38170BDC046FFEFFFFFF8B51F008B8905000C001600DB0505D50E23C95E0022022330
:4048C00000F074F8A289054B28001340A38132000E23E15E3B0000F01FF8F8BDFFEFFFFF70B50C000E25495F00F060F8A389421C03D1054A1340A38104E080225201134316
:40490000A381606570BDC046FFEFFFFF10B50E23C95E00F015F810BD70B50500080011000022064C22601A00FCF750F8431C03D12368002B00D02B6070BDC046B822002089
:40494000002370B5064C05000800236000F064F8431C03D12368002B00D02B6070BDC046B8220020002370B5064C050008001100236000F059F8431C03D12368002B00D01B
:404980002B6070BDB8220020002370B5064C05000800236000F050F8431C03D12368002B00D02B6070BDC046B822002070B50500080011000022064C22601A0000F044F8F3
:4049C000431C03D12368002B00D02B6070BDC046B8220020C9B28218904204D003788B4202D00130F8E70020704770477047000070B50500080011000022064C22601A00C9
:404A000000F02AF8431C03D12368002B00D02B6070BDC046B822002058220120014B40421A607047B822002058220120014B40421A607047B82200205822024B00201A606A
:404A40007047C046B822002058220120014B40421A607047B822002058220120014B40421A607047B8220020134A1088810703D08107890F401A001D11791030484381B2E8
:404A80005088820703D08207920F801A001D800040180A494030098980B2CA0701D0503080B2890706D504495422091F09785143081880B270470000360C00201010002018
:404AC00010B501F0E9FE10BD10B500F055FA10BD10B50749044609780220002907D1204601F02AFF002802D120460AF04FFE10BDC60D002070B504460120002C12D0236867
:404B0000002B0FD0616800290CD0074D06222889208118462968FFF73CF86968606809780170002070BD000010100020FFB585B0002768460E9D07734F481C460078002822
:404B400002D0082009B0F0BD10990F9801900095029105A807C800F001F90028F2D16946264603AB84460873002C19D0002115E08A00B75A082F09D990198078002805D0F0
:404B8000083FB7521878401C187005E0002914D00027B75290198770491CC9B2A942E7D360460028CED10F98002809D0109901F023FA002804D00120C4E701208446EFE795
:404BC00001F06AFE2D480021416081600599016021888180022D07D3A1798171A17AC171A1890181218A418100211EE0481C19E082008B00A75AE65ABE46BE4211D26F46BA
:404C00003E80B4461E190296B678BE7001967646E6521719029EBB78B3706646A652019EBE70401CA842E3D3491CA942DED3134822460C3000906846037B0799069800F089
:404C400015F90028B8D168460B4C007B60700B480C3001F051FE0028AED1084907480C3107F062FD0028A7D107F07CFD0028A3D10121217066E70000300C00200410002040
:404C8000F8B5054633480E460078002802D002242046F8BD002E5BD000242F49002D16D02A89D0070DD02868002808D003881B3BE12B04D24088FB2801D81B2801D20124B9
:404CC00009E0900707D56868002804D1F7E70020088108604860002CDAD11F482F8907811C481B21801D018041800421017119490020891C0870F80705D016480622801DCA
:404D00002968FEF746FF1449B80703D56A681148127882700F480D46801D0860001F486001F030FE0B48801D01F01EFE28890DF095FE28890DF0CAFF03461033FFF794FEAF
:404D40001F21C018890140180249308088809FE701249DE7300C002010100020FFB58446384F1C460020BB883F78054602460646002F11D100290ED0029999420BD36146F8
:404D8000002908D0002C06D00A99002906D02E4B0B99994202D2012004B0F0BD002144E0AB001F19BF78002F3BD0E35A002B38D07B43591889B22B0000F04AF80504101601
:404DC0001C253100A7782388BC46FF27233BEB37BB4222D26346032B1FD322E0A388002B1FD0302B19D31CE02389002B19D0282B13D316E0A289002A13D01346134F233B4B
:404E0000BB420AD20DE0268A002A0AD033460F4F233BBB4201D2964203D901200EE0002001E000280AD16D1CEDB2099B9D42B7D31C2463435B1802998B42ACD89642AAD858
:404E4000AAE70000300C002079020000BAFF000030B47446641E2578641CAB4200D21D46635D5B00E31830BC18470000FFB583B0002469460C801F4606468C80002806D050
:404E80000598002803D004983043800701D0012466E0002FFBD03449049809888842F6D3FEF7BCFBFEF7A2FB00F012FC002855D100F062FD002851D12C49084601F0D0F8B2
:404EC00005042D0C4AD12A480499066081800021C18007810C98007AC00704D0684601F0F4FC040007D10C98007A800703D501A801F0F4FC0446BF1DFEB2002C20D1314660
:404F0000059800F05DF804001AD10DF0EDFE040016D16A461088928808368518144AF1B29088D288AEB29319984207D3401B801A80B201F085FB050007D000E0FF250124C0
:404F400000F05EFA002D04D008E0F8B200F01CF9F6E700F081FA07490120087000F0CAFB204607B0F0BD0000340C0020AD5000001C1000203C0C002010B5034800780128DF
:404F800001D101F0FFF910BD3C0C002070B5084B0446DA889E8800205518B54206D81D68AA182260DA885118D98070BD032070BD1C10002001480089704700001C100020CA
:404FC000F0B587B007460D4600208900009006916846FFF7DBFF844600285DD1304800990160002117E02E4B88001A680629115406D22C4C0419667882185670628805E0AC
:40500000C419203CA67A8218567022891B68C018491C4280C9B2A942E5D300242DE0601CC2B2059025E01E4FA30039689600581840887118039604904E88B04217D9384646
:405040006F46FE80B6464F786E4677710297049F4F800168039F5E18767879184E700168764659184E800068029F18184770521CD2B2AA42D7D30598C4B2AC42CFD36046B0
:40508000002809D168460699FFF780FF8446002802D1054900980860604607B0F0BD0000400C0020A0690100440C00207047000010B5002809D005494A68002A05D0011F8D
:4050C00008788000105801F069FA10BD400C002010B50446FFF76EFFC0B2801DA0420CD307484068002808D0A100405801F0C8F9002801D00470001D10BD002010BD000053
:40510000400C0020F8B516460D460446FFF752FFC0B2801DA04203D20020C0430090F8BDB2B2E9B2684601F0D1F90099481C03D0024AA000526811500098F8BD400C0020F0
:40514000F8B50746FFF736FF801DC6B20A49002005460C680DE06178002907D06188B94202D32078FFF7B4FF002804D1241D6D1CEDB2B542EFD3F8BD400C002010B50028D6
:4051800001D0FFF795FF10BD70B506460948002504680BE06178002905D062882078121D0023FFF7AFFF241D6D1CEDB2B542F1D370BD0000400C0020FFB581B00A9F1600D9
:4051C0000C4620D000F0F2F8054604281BD0002F0CD03846FFF7B4FF20492A0151184860002810D03A460499FEF7D3FC1B4928010E504618778101980570200406D47D2087
:40520000C000444304E0FF2005B0F0BD6404640C00F0BAF80746042807D000F04FFAA0420BD800F04BFA201A03E0204600F0AAFA0020F06035720020E6E700F03FFA0090F1
:4052400000F0B6FA00980121001B009000F0ECF802493A0151180098C860E6E728100020F8B5060116483418217A042903D0E068002802D017E00020F8BD00F01FFA054626
:4052800000F096FA00F0A0F804280CD001010C480F18F8680021451900F0C6F80020F860284600F06FFA6068054D002801D0FFF765FF042020720020A8516081E060DAE777
:4052C00028100020FEB500266A46304601232549050169180D7A042D02D0C96800291BD000211154401CC0B20428F0D300246846005D002830D01B482101081841894768B7
:4053000005680291002101604160042241810272C160002E02D015E01354E3E700F054F804280ED001010F4808180190C6680021304600F079F801980021C160304600F0F0
:4053400021FA0126002D07D038460299A847002F02D03846FFF712FF641CE4B2042CC6D3FEBD0000281000200EB5002005216A460090118150810348694600680EF019FB47
:405380000EBD0000480C0020074A0020010189180B7A042B02D0C968002903D0401CC0B20428F3D370470000281000200549002002015218127A042A03D0401CC0B20428B6
:4053C000F6D370472810002030B50A4B04200A4C00210A011219157A042D06D0D268002A03D09A4201D808461346491CC9B20429EFD330BDFFFF00002810002070470000D8
:4054000030B50020074C05460423020111190B72A5504D60401C4D81C0B2CD600428F4D330BD00002810002030B5094C00231A011219157A042D04D0D568002906D02D189D
:40544000D5605B1CDBB2042BF1D330BD2D1AF7E728100020002070471CB5002469460C70142001902346054A05480EF0A7FA04480068401C00D1FF2420461CBDD5540000CA
:40548000480C00203EB5124A0146FF2000230124126800290DD0012914D0042908D104206946009308814B8110460EF082FA80B23EBD6846009304814381694610460EF0A2
:4054C00073FAF4E768460093048143816946EBE7480C002070B545890468416800890300FFF7B6FC08280509091E22282628002005F0A2FE1EE0022908D0C8B22A462146A5
:405500000CF050FB2046FFF739FE13E002202A4621460CF047FB2946204600F00DF809E000200DF045FF05E02046FFF7CBFE01E0FEF7F4F8002070BD014B0022DB6818472A
:405540004C0C002070B5448905680089022803D0032809D0FF2070BD2246094C0023A46829460120A04708E0FFF7AAFA241DA2B200232946022006F08AFF002070BD000084
:405580004C0C0020704700000248002141600180418070474C0C002070B50C46002186B016460391012802D0022859D116E003A9012006F0C1FF01281BD1039D3246214625
:4055C0002846FEF7E6FA0095287801900220694608814E816846FFF7B5FF41E0214D002B686809D0049004A9022006F0A5FF01281DD0022006B070BD002812D02988401893
:405600002146FEF7C6FA28880024801980B228806988091D884206D12C801348FFF792FF03E00320E6E788421AD96C6018E004986860E278A378110219430B4A69800023C4
:405640001060E3565360032313815181A1788170E178C1706178417021780170042028800020C7E74C0C0020681000203EB515460C46022803D004280CD000203EBD00911F
:40568000019002206946088107484A8100680EF090F907E00CF086FA044B0022DB6829462046984701203EBD480C00204C0C0020014AD160906070474C0C002003480168D4
:4056C0008068081A0A214843000970477410002010B5FDF793FF482204490548FEF759FA03490120C870002010BD0000BC6901007814002010B5FDF771FF10BD70B5134C11
:405700002368002B08D0207B1149C20705D04008400020738868A08070BD88680B4AA18880B29268814203D90A4D691A091802E0814202D2411A5118A160A080A06898427C
:40574000EAD30EF053F900F013F870BD74100020C0102E40FFFF000010B508461946FFF7A7FF10BD704710B5FFF780FF10BD000003480021016041608160C160704700005A
:4057800074100020024610B5FF20002A0CD0FFF7EFFF064C0321207B0843207310010A21FEF7CCF82060002010BD00007410002000B504480A21806848430209FFF7D8FFC3
:4057C000104600BD741000200248007B8007C00F704700007410002010B54B490868002802DA4A4B01221A70022290430860484800694549C00B4031096A0246C907C90FE8
:405800000A4259D0012000F07FFA3F480E216C30FDF7EEFD3E4820218430FDF7E9FD3C4814219C30FDF7E4FD3948FF21C131A430FDF7DEFD3648FF212F31B030FDF7D8FDAC
:4058400033483449BC30FDF7D3FD31483249AC30FDF7CEFD30492E48491CB430FDF7C8FD2B482E49B830FDF7C3FD29482C49CC30FDF7BEFD26482B490830FDF7B9FD2448B9
:405880002949A830FDF7B4FD214828498830FDF7AFFD1F4826498C30FDF7AAFD1C481921C9029030FDF7A4FDFDF7B2FDFDF7C2FEC0B2022812D01FE000290BD000210142A0
:4058C0000AD0114801216030FDF792FD0120FDF779FE97E70121F2E7FF2010BD15491648FDF786FD14481549001DFDF781FD124800210830FDF77CFD54200449C043891C4A
:405900000870002010BD000000F02E405C0C002000002E40320300002F3F00003102000010520000EC160000FA12000031D000003AE300009956000080012E40F80F000065
:4059400070B50646581C80B245086D00002408E0304600F0A9F81055000A1119A41C4870A4B2AC42F4D3D80705D0D0182038D15CC47FD454C17770BD10B5FF2000F0C4F9A5
:405980000F49FF2048700E481021801D41800121417001700A490020C91C4870FFF71CFF04000AD100F010F907210648FDF710FD044807211830FDF70BFD204610BD000034
:4059C0005C0C0020CC112E4070B5002405465B1E0AE0284600F068F8010A161971702D1D1055A41CADB2A4B29C42F2DB9C4203D1284600F059F8105570BD000070B50021FC
:405A00000A4D5B1E0AE0541864782602545C344346193480001D891C80B289B29942F2DB994202D1515C4019018070BD00102E40F0B50599091FCFB200217E1E0BE054184B
:405A400064782502545C2C43164D45192C80001D891C80B289B2B142F1DBFC0712D01C78515C24020F4A0C4381180C809C785D78001D210280B2294384182180001D80B23D
:405A8000D9780CE059781A7809021143054A84182180001DD9789B78090280B2194380180180F0BD00102E40014940180088704700102E4010B50B490020487000F084F841
:405AC000002000F047F9002000F034F907210648FDF77EFC044807211830FDF779FC002010BD00005F0C0020CC112E4010B50B46062812D006DC01280CD0032801D1FFF74D
:405B0000D9FF10BD0A28FCD00B28FAD105480078107010BDFFF730FF10BD1146184600F035F910BD620C0020F8B5244DAC6A0127A007234E002816DA307806280ED1286ABF
:405B4000384328621F480069F903084381B21D481030FDF74DFC042000F0D6F8174802212830FDF735FCE00718D000F017FF01280FD1002000F064FF062000F0C5F8104996
:405B8000FF20C91E48707078002802D1686B384368630A4801212830FDF71AFCE0050BD53078042802D1052000F0AEF80348FF2101312830FDF70CFCF8BD000040F02E40EA
:405BC0005F0C002000002E4010B503212348FDF70FFC0120FDF7E6FC20483038406A204C80076178800F890001431C480C38FDF7FFFB6078002808D0401E022181401820D8
:405C0000FDF786FFC000083800E0B82081B21548FDF7EEFB1348032109021438FDF7E8FB10481149B830FDF7E3FB612189010F48FDF7DEFB0D480321001FFDF7D9FB0C49C8
:405C40000C48FDF7D5FB0B480B496038FDF7D0FB084801218838FDF7CBFB10BD70F02E40620C0020D8102E4090890000041E2E40FF0F000058122E40209000000849087893
:405C800006280BD148780749002803D1486B400840004863C86A01221043C862704700005F0C002040F02E4001480078704700005F0C002000B50300FFF7CAF8080D050D9C
:405CC0000B070507090D012000BD032000BD042000BD022000BDFF2000BD0000074A9168D26889B2064B92B2994204D105498A4201D1012100E000210170704780002E40ED
:405D000033D000003FE3000010B50446FDF76EFC072C01D9FF2C01D102480470FDF75EFC10BD00005F0C002001494870704700005C0C002010B5064A012805D01921C9020A
:405D40001046FDF755FB10BD1D21C902F8E7000090002E4010B50A4A141D012808D009491046FDF745FB08492046FDF741FB10BD04491046891CFDF73BFB0349491DF3E7FD
:405D800088002E4031D000003AE3000070B50C460546FDF74FFCC0B202280E49287804D0FF2810D04C280CD810E0FF2809D10A4AD0680004800F032801D0087807E090699C
:405DC000000A553803E00878207070BD4F382070087070BD5E0C002000002E40F0B50122002834D0002932D00424420600D00524792342065B06D21800D0641C03460022C6
:405E00001EE00C2516466E43124D00277519AF72104F002ABB51696007D0661EB24209D10D4E86197606760E05E05E06760E8027BE1B00E080269B198919521C2E81D2B2A6
:405E4000A242DED303480549006B002288611046F0BD00000013002079020000680C002018B50020694608700A48006900280ED0132149014018047E684604704F21C900B1
:405E8000054800F059F8A04201D0012018BD002018BD0000680C002084100020074900200C2242435218927A012A05D0401CC0B20628F5D30020704701207047001300202F
:405EC000F8B50E000446154609D0194F19497868A04202D94018A04201D38D4201D90120F8BD31462046FDF745FE00281ED02A4631462046FDF74DFEE8B200210C224A4349
:405F0000D21913895568EE18A6420BD90126641B1B1B9672834209DA1469C01A044AC0B220329676491CC9B20629E7D30020F8BD0013002079020000034610B50020024688
:405F400004E09C5C2018521CC0B292B28A42F8D310BD000070B500F05FF8084C064A216907480D46FDF715FE05492846FFF736FFFFF776FF207070BD79020000680C002024
:405F800084100020002070470020054A002902D0012902D002E0906000E0D06000207047680C002070B5084C154608460549E26889182A46FDF7EDFDE0684019E06028B23F
:405FC00070BD000084100020680C00203EB50A226946FFF7E7FF044606480A2200686946FDF7C8FD002802D00020C0433EBD20463EBD00006C0C0020002802D0044A9142C2
:4060000001D2FF20704703494A6108610020704779020000680C0020024800218160C16070470000680C002070B5074C15460548A26880182A46FFF743FFA0684019A060EE
:4060400028B270BD84100020680C002010B503490A220968FFF7E8FF10BD00006C0C002010B50F4A002313600E4A13600E4B18600E4801600E49012008600E490860000239
:4060800090600E490C4808600D4914300860FF381538506000F0BCF800F0CAF9002010BD9C0C0020840C0020B00C0020B40C0020A00C0020900C002048140020940C00206B
:4060C000A80C0020014610B50020002910D0094B1A689C685118A14209D25868196080188A0704D08A07920F891A091D196010BD002010BD840C0020F8B50024164E671EC8
:40610000321F3D463168136806E01422624310328A58521C1BD0641C9C42F6D36A1C14D02C461422544322460C3288500C214843FFF7C8FF3168002808510AD031680020C9
:40614000103408517068401C70602846F8BD2546E4E73846F8BD0000940C0020F3B50026F64381B000281BDB1E490968884217D80299002914D01B4F142204463F1D5443C6
:406180002546396810354859401C09D0FDF72EFA38682F1F4159C359994203DBFDF71EFA3046FEBD214608310091465801590C20704308180C220299FDF7EBFC0948761C53
:4061C000001D0068C159B14200D100260549009A091D865008684159491C4151FDF7FEF90020FEBD900C0020002803DB07490968884202D90020C043704704491422091DC0
:40620000096850431030085870470000900C0020F0B500200D4A451E0346171F50600FE014260146714314680E1DA3510C461668083433511668083435511468401C63507F
:4062400039688842ECD30020F0BD0000940C0020F3B50026F64381B0002841DB2349096888423DD8029900293AD0204F142204463F1D54432546396810354859401C2FD032
:40628000FDF7B4F93868415900292BD0211D009146580C21005971430F46C1190C220298FDF777FC11480021001D0068761C00590C34C0190160416081600C48001D00681B
:4062C0000159B14200D100260849009A091D865008684159491E4151FDF780F90020FEBD3046FEBDFDF77AF9FAE70000900C0020FEB504460D4600201E49089E0860471EA9
:40630000009001900290002C11D0486885420ED2002A0CD0002E0AD0642E08D808460C3001681C2068430C18207A002801D03846FEBD0120226020721846FFF7DDFE6060D8
:40634000401C13D06681A6810A4827610C3067610179A94200D205710021684601810A462846029B00F040F82846FEBD00202072DDE700009C0C002038B50124009400F074
:4063800039F838BDFEB50027164EFF433D4600240EE01C20316860430818017A002906D04068FFF721FF002801D0254603E0641C3079A042EDDA681C12D01C2130684D43EE
:4063C0004419FDF713F969466068FFF741FF0546FDF704F9002DD9D1216868468847D5E7FEBD0000A80C002038B50024009400F001F838BD1FB500220C49541E0A6000285D
:4064000011DB496888420ED808491C220C31096850430818406801A9FFF7A0FE401C02D0002004B010BD2046FBE700009C0C0020F0B50021114A4D1E174611710C3F0B4653
:40644000BD6016E008461C2460431668041D355114680646235014680836A3551468361DA353044616680A34335318301468491C255078688142E5D30020F0BDA80C0020DB
:4064800038B500210091002811DB0F49097888420DDA0D4D04010C3529680859002807D0201D0818694600F06FF9002801D0002038BDFDF79BF828680F34015D491E015527
:4064C000FDF78CF8009838BDB80C0020F7B582B0002502986E1E06602E48D21C024017462D4A2C4610460C380178106805E02301C358002B0FD0641CE4B28C42F7D3711C44
:4065000028D03401211D40180191039900F02AF900281FD101E02646F1E71F48016820460C300F521C480399026820460E30115419480399026820460F301154039878430D
:4065400000F0A0F8144900280968085102D00024009011E001251AE00F48016801980818009900F02CF9002801D0012502E00098C0190090641CE4B203988442ECD3002D21
:4065800005D10298066004480179491C0171284605B0F0BDFCFF0000C40C0020F8B50D4600216A468C461180002839DB23490978884235DA214B04010C3319680A59002AB9
:4065C0002ED020460C300B5A801C0E5C184670438018954224D3854222D2002006E007465F43BF18AF4206D0401CC0B2B042F6D36046002814D0114E271DC8190C366A461A
:40660000294600F006F900280AD168460088012808D030682946C01900F0D1F8002803D00120F8BD0020F8BDFCF7E0FF30680F34015D491C0155FCF7D1FFF3E7B80C00203C
:40664000F8B50F46002400F031F8002817D10C4900220B460C334A600EE021011D680E466A501D680C36AA53B61C1D680F31AA551D68641C6A54E4B2BC42EED31A71F8BDC5
:40668000B80C002000280BD0C01C074A81085068890053884118994203D89368516018187047002070470000B80C0020F8B5064600200F4D009029700C0121466846FEF70F
:4066C00065FC00280CD129460C3100980860301B001F84B221466846FEF758FC002801D0FF20F8BD6C800098A8600020F8BD0000B80C0020F8B5002827DB194909788842F4
:4067000023DA174C05010C342168485900281CD028460C30085A009028460E300E5C401C0E5420682F1DC01900F064F800280CD12068002445590EE0094829460C3000686B
:40674000C01900F03CF8002801D00120F8BD00982D18641CE4B2B442EED30020F8BD0000B80C002030B50D4604000BD0A800FFF789FF6060002805D000202570C043608058
:40678000002030BD012030BD70B50D46040005D0002D03D00220205E002801DA012070BDFCF724FF0221615E60688900405828606088401E6080FCF711FF002070BD70B578
:4067C0000D46040007D0002D05D002212078615E401E814201DB012070BDFCF707FF6088401C00B26080616880000D50FCF7F6FE002070BD10B5040009D0227800216068D6
:40680000FDF7D0F90020C0436080002010BD012010BDF0B500231D46002802D00224045F0AE00120F0BD46689F00F6598E4201D1012503E05B1CDBB29C42F4DA15700020BB
:40684000F0BD00000148007870470000CC0C00207CB505460024FEF733F9A8796946087000A8062229460130FDF793F90021684604F0A8FF0C2806D0072806D01F2806D06C
:40688000122806D006E0022404E0042402E0272400E0012420467CBD10B500F075F9FFF703FAFFF707FA10BD70B504460025FEF707F9002C06D0A079012803D8214602F004
:4068C00009FD00E00125284670BD01460120002902D05020088000207047000001460120002905D003485422007850430880002070470000CE0C002010B502460D49FE20B3
:406900004870032410460DF077FB002810D10DF01BFB00280CD105F06BFE002808D100F04FFB002804D105F01DFA002800D10024204610BDCC0C002070B5002504460028EC
:406940000ED0A07901280BD8FEF7BAF8A0790028204602D003F002F803E002F0D7FF00E00125284670BD0000014610B50120002904D006220248FDF70CF9002010BD000039
:40698000D80C002001460120002903D0087802490870002070470000CE0C002001480079704700008015002038B504460120002C20D0617801291DD800290BD0FF25E5357F
:4069C000FEF77EF80C4828180088C0B22070072803D00EE0FF25CD35F2E70020694608706846FFF77BF969460878012801D108202070002038BD000000102E40014A0021DF
:406A000092681047CC0C002008B500226B461A7026280CD0094A342852680BD0352805D1900703D50021352005F0BEFE08BD19462620F9E7D007F9D03420F5E7CC0C0020AA
:406A4000014908717047000080150020F8B504460120002C26D06178012902D92278092A20D8002905D0FF25E5352078092803D004E0FF25CD35F8E708202070FEF720F884
:406A80002078114F114E08280DD00020FFF762F970780128207810D00D4969180880FE2070700020F8BD0120FFF754F90720B8810549203188800120F2E7B88102482178C5
:406AC00020308180EBE70000C0112E40CC0C002000102E4070B50E46050001D0002400E00C4C002C11D0E28A500609D5D107C90F022003F00DF8E08A40218843E08204E0C0
:406B0000D107C90F012003F003F83146284602F0E7FC70BDE0140020F8B50546002004460D4E009013E022466946284600F0A6FE0098002801D00DF041FAA878214602F000
:406B40001BFBA878214602F009FB641CE4B2308AA042E8D8F8BD0000A8150020064A02235188891C89B25180814201D8102900D95380508870470000DE0C00200148407864
:406B800070470000DE0C002038B51E4CFFF78CF8042813D0052811D0062812D003282AD007280AD100206946087002460120FEF79DFFFFF779F80128FBD138BD00F0E1FB89
:406BC00038BD02F045FB00F0DCFB02F0A5FB8007800F0228F4D10C4841880029F0D05B21095D0029ECD101210170A07D0140022002F08EFF38BD02F02FFB0120FFF784F80C
:406C000038BD0000E0140020E20C0020F8B50646002402F0DBFF0546304602F0F1FF03460A480021068A0DE001228A401046174628401F40002803D0002F01D1224394B26A
:406C4000491CC9B28E42EFD82046F8BDA81500201CB50020694648706846FFF7A5FE01AA69460A20FEF742FF6946042008561CBD70B50D4601F0A8F904000BD02079002898
:406C800008D0FDF71DFFE178A0782A4602F0BEFC002070BD022070BD0148007870470000B81400204030C07E002800D00120704700B500F001F800BD902148430749084AA8
:406CC00040186030417F491CC9B24177D289914201D300214177C8B270470000C0140020A815002013B501F06FF904000BD001F032FE002807D0214601AA0A310620FEF7EF
:406D0000F5FE00201CBD02201CBD000010B50C4601F05AF900280AD001F01DFE002806D0224604490A20FEF7E1FE002010BD022010BD0000A1140020F3B581B00746014634
:406D40000026029802F03AFF0446002F01D0002500E0154D002D21D0284601F06BF9032C04D13946029802F085FF06463846029902F0F4F9032C06D0002C10D0012138460E
:406D800001F008FB03E03146384603F007F9284602F0ECF80221284602F002F9FEBD3846029902F0DBF9FEBDE014002010B5044600F0D0FA002804D104F07AF8002801D0C4
:406DC0000C2010BD2078611C02F01CFDFF2801D01F2010BD02F062FDFF280AD02178621C02F052F9044821780068026B601C904710BD072010BD0000000D002010B504F01C
:406E000057F8002801D00C2010BD02F0DDFC03480068C06A8047002010BD0000000D002070B50D46044610210DF008F81021601806460DF003F8334610221946204604F047
:406E400065F8102130460CF0F9FF02202870204604F0ACFE70BD0000F8B504464078217802028006870FE0781143A67809050002090D0643084601F0A7F800210546F2B2A0
:406E8000002812D0002C10D0022F0ED0032F0CD0002A0AD00279092A07D0002A05D0134A5A23527E1B5C9A4207D82889002104F073FD20460DF082F8FF21002914D10C48A6
:406EC000224600682946436930469847C0B2FF280AD128464030817EF2B2491C8176FF232146284600F009F9F8BD0000781400201C0D00200020704710B5044603F0D8FFBE
:406F0000002801D00C2010BD2078611C02F07AFCFF2808D002F0BEFB044821780068426B601C904710BD1F2010BD0000000D002010B500F0A9F904F015FF002010BD000099
:406F400010B504460F4801F02FFD012817D00D4805222146AC30FCF71CFE0A490522AC310846BC38FCF715FE00F03CFD054880222038C17B1143C17300F0BCF910BD3A2013
:406F800010BD0000E014002010B5044600786178E2780843A17811430843217908436179084305D003F076FF002803D00C2010BD122010BD204602F0D1FC002010BD0000E7
:406FC00010B5FCF737FB02F023FE044803F0FEFF02F06AFB012000F003F810BD88140020F1B586B003A8009005A8019028489F22817A114081726846FDF77CFD002845D14E
:4070000069460989C90705D0224806990068C2686846904769460989890706D5002835D11D480068816A0698884700282ED11B4E0025757075737571F575357675767575F9
:40704000B570F570B5713746F5730120CC3738731F20F880FF2130467972A0300176457603F074FC01F058FC00242046069901F005FC002803D1641C2406240EF5D0FD72A3
:407080000649BD72B573C0310D600D7107B0F0BD781400201C0D0020000D0020C014002070B505460E46084602F090FD0446304602F0A6FD0121A9400A46224001400A43A3
:4070C00001D0012070BD002070BD10B50446084602F096FD0121A140014201D0012010BD002010BD10B5FEF7DFFD032804D102F0B3F80120FEF708FE10BDFEB51C461646C3
:407100000F46054601F032FFA878FFF7D1FD02460190334639460094284600F00DF8002808D1A8780199FFF7D5FCFF2C02D138460CF044FFFEBD0000FFB585B005460E980F
:407140000C46FF2810D02B49C00009680A5840180179C0795278814201D9012601E09006860F6846038108E06078A1788006860FE0780002014368460181284601F000FCBB
:40718000070007D021462846079A00F023FB384609B0F0BD304600F009FC04AE0346039002AA29460096204600F00FFA3C20405D002818D0284601F0E3FB012813D0684680
:4071C00000890096C0B20190A878231DFF22079902F03AF968460089039BC2B2A878079902F07EFCD3E7684600890021C0B20091E9E70000180D0020F8B50026002530461A
:40720000FFF704FD07001DD090201149704340186030447F12E0601CFCF790FBCCB23846E040C007C00F07D02146304601F08EFF21463046FFF780FD6D1CEDB20548018ADB
